:100000000C9462000C948A000C948A000C948A0070
:100010000C948A000C948A000C948A000C948A0038
:100020000C948A000C948A000C948A000C948A0028
:100030000C948A000C948A000C948A000C948A0018
:100040000C941B030C948A000C948B030C94650392
:100050000C948A000C948A000C948A000C948A00F8
:100060000C948A000C948A000000000024002700F1
:100070002A0000000000250028002B0000000008D6
:10008000000201000003040700000000000000005F
:1000900000000000230026002900040404040404D6
:1000A0000404020202020202030303030303010227
:1000B00004081020408001020408102001020408F6
:1000C0001020010511241FBECFEFD8E0DEBFCDBF49
:1000D00011E0A0E0B1E0E0EBFAE002C005900D9283
:1000E000AC33B107D9F721E0ACE3B1E001C01D9218
:1000F000A83EB207E1F710E0C2E6D0E004C02197C5
:10010000FE010E945005C136D107C9F70E940204C2
:100110000C9456050C94000090E0FC01E458FF4F4D
:100120002491FC01E255FF4F3491FC01E656FF4F4C
:10013000E491EE23C9F0222339F0233001F1A8F431
:10014000213019F1223029F1F0E0EE0FFF1FEE58B7
:10015000FF4FA591B4918FB7F894EC91611126C02F
:1001600030953E233C938FBF08952730A9F0283067
:10017000C9F0243049F7809180008F7D03C08091C1
:1001800080008F7780938000DFCF84B58F7784BD28
:10019000DBCF84B58F7DFBCF8091B0008F778093CC
:1001A000B000D2CF8091B0008F7DF9CF3E2BDACF57
:1001B000CF93DF9390E0FC01E255FF4F24918656E8
:1001C0009F4FFC0184918823D1F090E0880F991F04
:1001D000FC01E859FF4FA591B491FC01EE58FF4F87
:1001E000C591D49161110EC09FB7F8948C91E22F04
:1001F000E0958E238C932881E223E8839FBFDF91D3
:10020000CF9108958FB7F894EC91E22BEC938FBFC8
:10021000F6CF3FB7F8948091470190914801A091A3
:100220004901B0914A0126B5A89B05C02F3F19F09E
:100230000196A11DB11D3FBFBA2FA92F982F882766
:10024000BC01CD01620F711D811D911D42E0660F41
:10025000771F881F991F4A95D1F708958F929F9213
:10026000AF92BF92CF92DF92EF92FF920E9409016C
:100270004B015C0188ECC82ED12CE12CF12C0E94A2
:100280000901681979098A099B09683E734081054B
:100290009105A8F321E0C21AD108E108F10888EE1F
:1002A000880E83E0981EA11CB11CC114D104E10486
:1002B000F10429F7FF90EF90DF90CF90BF90AF90BF
:1002C0009F908F900895AF92BF92CF92DF92EF925E
:1002D000FF920F931F93CF93DF936C017B018B01F0
:1002E000040F151FEB015E01AE18BF08C017D10740
:1002F00059F06991D601ED91FC910190F081E02DCA
:10030000C6010995892B79F7C501DF91CF911F911E
:100310000F91FF90EF90DF90CF90BF90AF90089536
:10032000FC01538D448D252F30E0842F90E0821BFB
:10033000930B541710F0CF96089501970895FC0180
:10034000918D828D981761F0A28DAE0FBF2FB11DD8
:100350005D968C91928D9F5F9F73928F90E0089530
:100360008FEF9FEF0895FC01918D828D981731F0EA
:10037000828DE80FF11D858D90E008958FEF9FEF3E
:100380000895FC01918D228D892F90E0805C9F4F14
:10039000821B91098F73992708958BE491E00E9445
:1003A000C10121E0892B09F420E0822F089580E02B
:1003B00090E0892B29F00E94CD0181110C9400005E
:1003C0000895FC01A48DA80FB92FB11DA35ABF4FEA
:1003D0002C91848D90E001968F739927848FA68944
:1003E000B7892C93A089B1898C91837080648C9398
:1003F000938D848D981306C00288F389E02D808147
:100400008F7D80830895EF92FF920F931F93CF9378
:10041000DF93EC0181E0888F9B8D8C8D98131AC03F
:10042000E889F989808185FF15C09FB7F894EE8926
:10043000FF896083E889F989808183708064808383
:100440009FBF81E090E0DF91CF911F910F91FF90CE
:10045000EF900895F62E0B8D10E00F5F1F4F0F7376
:100460001127E02E8C8D8E110CC00FB607FCFACF31
:10047000E889F989808185FFF5CFCE010E94E101ED
:10048000F1CFEB8DEC0FFD2FF11DE35AFF4FF08202
:100490009FB7F8940B8FEA89FB8980818062CFCF68
:1004A000CF93DF93EC01888D8823B9F0AA89BB89AB
:1004B000E889F9898C9185FD03C0808186FD0DC096
:1004C0000FB607FCF7CF8C9185FFF2CF808185FFB7
:1004D000EDCFCE010E94E101E9CFDF91CF910895E8
:1004E0000F931F93E6EBF0E06491E2EAF0E0E49111
:1004F000F0E0EE0FFF1FE057FF4F8591949100E46D
:1005000012E42FE030E040E00E94BD036115710568
:100510008105910529F06F5F7F4F8F4F9F4F9F702F
:100520001F910F910895FC0101900020E9F7319788
:10053000AF01481B590BBC018BE491E00C946301A3
:100540008F929F92AF92BF92CF92DF92EF92FF92E3
:100550000F931F93CF93DF93CDB7DEB7A1970FB65D
:10056000F894DEBF0FBECDBF6B017C01F7FE41C02A
:100570006DE28BE491E00E9403028C012227332775
:10058000A9012C193D094E095F0919A2CE018196D6
:100590007C019AE0892E912CA12CB12CCA01B901C1
:1005A000A50194010E942E05605DF70162937F0111
:1005B000211531054105510589F790E080E030971C
:1005C00019F0CF010E949302800F911FA1960FB6E0
:1005D000F894DEBF0FBECDBFDF91CF911F910F9179
:1005E000FF90EF90DF90CF90BF90AF909F908F9053
:1005F0000895AC019B0119A28E010F5D1F4F8AE087
:10060000C82ED12CE12CF12CCA01B901A701960109
:100610000E942E05605DF80162938F01211531055E
:100620004105510589F790E080E0309779F2CF01DC
:100630000E949302CBCF1F920F920FB60F921124FC
:100640002F933F938F939F93AF93BF9380914301D9
:1006500090914401A0914501B09146013091420131
:1006600023E0230F2D3758F50196A11DB11D2093CE
:1006700042018093430190934401A0934501B093BC
:1006800046018091470190914801A0914901B091A4
:100690004A010196A11DB11D809347019093480125
:1006A000A0934901B0934A01BF91AF919F918F915F
:1006B0003F912F910F900FBE0F901F90189526E835
:1006C000230F0296A11DB11DD2CF1F920F920FB61C
:1006D0000F9211242F933F934F935F936F937F93C8
:1006E0008F939F93AF93BF93EF93FF938BE491E02E
:1006F0000E94E101FF91EF91BF91AF919F918F9186
:100700007F916F915F914F913F912F910F900FBE0D
:100710000F901F9018951F920F920FB60F921124F1
:100720002F938F939F93EF93FF93E0915B01F09151
:100730005C018081E0916101F091620182FD1BC04A
:100740009081809164018F5F8F7320916501821782
:1007500041F0E0916401F0E0E55BFE4F958F8093FE
:100760006401FF91EF919F918F912F910F900FBE98
:100770000F901F9018958081F4CFCF92DF92EF9267
:10078000FF920F931F93E82FF92F05C00150110915
:100790002109310961F1908196239417B9F305C0BD
:1007A000015011092109310911F190819623941307
:1007B000F7CFC12CD12CE12CF12C0AC08FEFC81A35
:1007C000D80AE80AF80A0C151D052E053F0579F030
:1007D00080818623841791F36C2D7D2D8E2D9F2D86
:1007E0001F910F91FF90EF90DF90CF90089560E000
:1007F00070E080E090E01F910F91FF90EF90DF900C
:10080000CF900895789484B5826084BD84B581606A
:1008100084BD85B5826085BD85B5816085BD8091CB
:100820006E00816080936E00109281008091810043
:10083000826080938100809181008160809381003B
:10084000809180008160809380008091B1008460FD
:100850008093B1008091B00081608093B00080915E
:100860007A00846080937A0080917A00826080931D
:100870007A0080917A00816080937A0080917A007A
:10088000806880937A001092C10061E084E00E9449
:10089000D80061E085E00E94D80061E086E00E9417
:1008A000D80061E087E00E94D80061E084E00E9407
:1008B0008C0060E085E00E948C0060E088E00E948F
:1008C000D800E0915B01F0915C0182E08083E091CF
:1008D0005701F09158011082E0915901F0915A01AD
:1008E0008FEC808310926301E0915F01F0916001D1
:1008F00086E08083E0915D01F0915E0180818061FE
:100900008083E0915D01F0915E0180818860808349
:10091000E0915D01F0915E01808180688083E091CB
:100920005D01F0915E0180818F7D8083C0E0D0E029
:1009300060E086E00E948C0060E087E00E948C000E
:100940000E94700270934101609340010E942E0149
:1009500061E086E00E948C0061E087E00E948C00EC
:100960000E94700270933F0160933E010E942E012D
:1009700060E086E00E948C0061E087E00E948C00CD
:100980000E94700270933D0160933C010E942E0111
:1009900082E191E00E9493026091400170914101D7
:1009A000072E000C880B990B0E94A0028CE191E0AD
:1009B0000E94930260913E0170913F01072E000C4E
:1009C000880B990B0E94A0028BE291E00E94930297
:1009D00060913C0170913D01072E000C880B990B32
:1009E0000E94A00289E391E00E949302209709F4FB
:1009F0009FCF0E94CD01882309F49ACF0E94000066
:100A000097CFEBE4F1E01382128288EE93E0A0E04E
:100A1000B0E084839583A683B78384E091E09183DB
:100A2000808385EC90E09587848784EC90E09787BD
:100A3000868780EC90E0918B808B81EC90E0938BAB
:100A4000828B82EC90E0958B848B86EC90E0978B88
:100A5000868B118E128E138E148E0895A1E21A2E9B
:100A6000AA1BBB1BFD010DC0AA1FBB1FEE1FFF1F52
:100A7000A217B307E407F50720F0A21BB30BE40BA2
:100A8000F50B661F771F881F991F1A9469F76095E9
:100A90007095809590959B01AC01BD01CF010895A3
:100AA000EE0FFF1F0590F491E02D0994F894FFCF0D
:100AB000000000000302630190015002C1019F0188
:100AC000B301526564205057203D2000202D20475F
:100AD0007265656E205057203D2000202D20426C0D
:0C0AE0007565205057203D20000D0A00D5
:00000001FF
