:100000000C9462000C948A000C948A000C948A0070
:100010000C948A000C948A000C948A000C948A0038
:100020000C948A000C948A000C948A000C942C0482
:100030000C948A000C948A000C948A000C948A0018
:100040000C948A030C948A000C94FA030C94D40345
:100050000C948A000C948A000C948A000C948A00F8
:100060000C948A000C948A000000000024002700F1
:100070002A0000000000250028002B0000000008D6
:10008000000201000003040700000000000000005F
:1000900000000000230026002900040404040404D6
:1000A0000404020202020202030303030303010227
:1000B00004081020408001020408102001020408F6
:1000C00010202D0511241FBECFEFD8E0DEBFCDBF1D
:1000D00011E0A0E0B1E0E2E8FFE002C005900D927F
:1000E000AE37B107D9F722E0AEE7B1E001C01D920B
:1000F000A335B207E1F710E0C2E6D0E004C02197D3
:10010000FE010E94B907C136D107C9F70E948A05CE
:100110000C94BF070C9400008F929F92AF92BF92F5
:10012000FF920F931F93CF93DF93F09050022BE039
:100130002F1508F44CC02091520208E512E0021B72
:10014000110927FD1395000F111F000F111F20919A
:100150005102C8E8D0E0C21BD10927FDD395CC0FCE
:10016000DD1FCC0FDD1F4E010D2E000CAA08BB08B1
:100170009801012E000C440B550B281939094A0926
:100180005B09DC010E94740724EB30E040E050E0A2
:100190000E944A07820E931EA41EB51E8C169D0651
:1001A0002CF0E801801691060CF4E4012297CC0FA4
:1001B000DD1F2FB7F8948F2D90E0FC01EE0FFF1F8D
:1001C000E80FF91FE55DFD4FD283C1832FBFDF919B
:1001D000CF911F910F91FF90BF90AF909F908F9004
:1001E0000895833081F028F4813099F08230A9F0AD
:1001F00008958730A9F08830C9F08430B1F4809137
:1002000080008F7D03C0809180008F778093800075
:10021000089584B58F7784BD089584B58F7DFBCF15
:100220008091B0008F778093B00008958091B000E6
:100230008F7DF9CF1F93CF93DF93282F30E0F90103
:10024000E458FF4F8491F901E255FF4FD491F90131
:10025000E656FF4FC491CC23A9F0162F81110E94BE
:10026000F100EC2FF0E0EE0FFF1FEE58FF4FA591CD
:10027000B4918FB7F894EC91111108C0D095DE239A
:10028000DC938FBFDF91CF911F910895DE2BF8CFC4
:10029000CF93DF9390E0FC01E255FF4F2491865607
:1002A0009F4FFC0184918823D1F090E0880F991F23
:1002B000FC01E859FF4FA591B491FC01EE58FF4FA6
:1002C000C591D49161110EC09FB7F8948C91E22F23
:1002D000E0958E238C932881E223E8839FBFDF91F2
:1002E000CF9108958FB7F894EC91E22BEC938FBFE8
:1002F000F6CF3FB7F89480918A0190918B01A0913D
:100300008C01B0918D0126B5A89B05C02F3F19F037
:100310000196A11DB11D3FBFBA2FA92F982F882785
:10032000BC01CD01620F711D811D911D42E0660F60
:10033000771F881F991F4A95D1F708958F929F9232
:10034000AF92BF92CF92DF92EF92FF924B015C018E
:100350000E9479016B017C010E9479016C197D0971
:100360008E099F09683E734081059105A8F321E03D
:10037000821A9108A108B10888EEC80E83E0D81E41
:10038000E11CF11C81149104A104B10429F7FF9030
:10039000EF90DF90CF90BF90AF909F908F90089597
:1003A000AF92BF92CF92DF92EF92FF920F931F9383
:1003B000CF93DF936C017B018B01040F151FEB01C1
:1003C0005E01AE18BF08C017D10759F06991D60178
:1003D000ED91FC910190F081E02DC6010995892BEA
:1003E00079F7C501DF91CF911F910F91FF90EF90A9
:1003F000DF90CF90BF90AF900895FC01538D448D56
:10040000252F30E0842F90E0821B930B541710F0BF
:10041000CF96089501970895FC01918D828D9817CC
:1004200061F0A28DAE0FBF2FB11D5D968C91928DA4
:100430009F5F9F73928F90E008958FEF9FEF0895D5
:10044000FC01918D828D981731F0828DE80FF11D9E
:10045000858D90E008958FEF9FEF0895FC01918DB9
:10046000228D892F90E0805C9F4F821B91098F73B2
:10047000992708958EE891E00E942E0221E0892BB1
:1004800009F420E0822F089580E090E0892B29F084
:100490000E943A0281110C9400000895FC01A48D81
:1004A000A80FB92FB11DA35ABF4F2C91848D90E096
:1004B00001968F739927848FA689B7892C93A08979
:1004C000B1898C91837080648C93938D848D981303
:1004D00006C00288F389E02D80818F7D8083089596
:1004E000EF92FF920F931F93CF93DF93EC0181E084
:1004F000888F9B8D8C8D98131AC0E889F98980812B
:1005000085FF15C09FB7F894EE89FF896083E8895D
:10051000F98980818370806480839FBF81E090E04F
:10052000DF91CF911F910F91FF90EF900895F62EDC
:100530000B8D10E00F5F1F4F0F731127E02E8C8D76
:100540008E110CC00FB607FCFACFE889F9898081BB
:1005500085FFF5CFCE010E944E02F1CFEB8DEC0F5F
:10056000FD2FF11DE35AFF4FF0829FB7F8940B8FD8
:10057000EA89FB8980818062CFCFCF93DF93EC0142
:10058000888D8823B9F0AA89BB89E889F9898C917B
:1005900085FD03C0808186FD0DC00FB607FCF7CF37
:1005A0008C9185FFF2CF808185FFEDCFCE010E9437
:1005B0004E02E9CFDF91CF910895FC010190002018
:1005C000E9F73197AF01481B590BBC018EE891E068
:1005D0000C94D0018F929F92AF92BF920F931F9372
:1005E000CF93DF93CDB7DEB7A1970FB6F894DEBFF8
:1005F0000FBECDBF19A2423008F44AE08E010F5D54
:100600001F4F842E912CB12CA12CA50194010E9486
:100610007C07E62FB901CA01EA30F4F4E05DD801A5
:10062000EE938D01232B242B252B79F790E080E08E
:10063000109719F0CD010E94DD02A1960FB6F89433
:10064000DEBF0FBECDBFDF91CF911F910F91BF9045
:10065000AF909F908F900895E95CE1CFCF92DF92A9
:10066000EF92FF92CF93DF936B017C016DE28EE8F6
:1006700091E00E947002EC0166277727CB016C198C
:100680007D098E099F094AE00E94EA028C0F9D1F96
:10069000DF91CF91FF90EF90DF90CF900895CF93AF
:1006A000DF930E94DD02EC0182E191E00E94DD0215
:1006B0008C0F9D1FDF91CF910895BC01990F880B7E
:1006C000990B97FD0C942E034AE00C94EA020F93C9
:1006D0001F93E6EBF0E06491E2EAF0E0E491F0E0F1
:1006E000EE0FFF1FE057FF4F8591949100E412E455
:1006F0002FE030E040E00E94E804611571058105BB
:10070000910529F06F5F7F4F8F4F9F4F9F701F9113
:100710000F9108951F920F920FB60F9211242F93ED
:100720003F938F939F93AF93BF9380918601909156
:100730008701A0918801B09189013091850123E062
:10074000230F2D3758F50196A11DB11D209385016A
:100750008093860190938701A0938801B0938901CB
:1007600080918A0190918B01A0918C01B0918D01B3
:100770000196A11DB11D80938A0190938B01A093D6
:100780008C01B0938D01BF91AF919F918F913F915B
:100790002F910F900FBE0F901F90189526E8230FF2
:1007A0000296A11DB11DD2CF1F920F920FB60F92CC
:1007B00011242F933F934F935F936F937F938F9366
:1007C0009F93AF93BF93EF93FF938EE891E00E94C6
:1007D0004E02FF91EF91BF91AF919F918F917F91C9
:1007E0006F915F914F913F912F910F900FBE0F909E
:1007F0001F9018951F920F920FB60F9211242F93EE
:100800008F939F93EF93FF93E0919E01F0919F014F
:100810008081E091A401F091A50182FD1BC090812F
:100820008091A7018F5F8F732091A801821741F0FB
:10083000E091A701F0E0E257FE4F958F8093A7016A
:10084000FF91EF919F918F912F910F900FBE0F907D
:100850001F9018958081F4CF1F920F920FB60F92C0
:1008600011242F933F934F935F936F937F938F93B5
:100870009F93AF93BF93CF93DF93EF93FF938091B9
:100880007E01C0914F02D0E087FF24C01092850006
:100890001092840080917E018F5F80937E01809111
:1008A0007E01082E000C990B8C179D0724F4809173
:1008B0007E018C30C4F18091840090918500049673
:1008C00080349C4908F47AC080918400909185001E
:1008D000049676C080917E01082E000C990B8C172F
:1008E0009D07C4F6E0917E018E2FEE0F990BFC015F
:1008F000EE0FFF1FE80FF91FE55DFD4F808186FFBA
:10090000C9CFE0917E018E2FEE0F990BFC01EE0F07
:10091000FF1FE80FF91FE55DFD4F808160E08F73D9
:100920000E941A01B7CF2091840030918500E09198
:100930007E018E2FEE0F990BFC01EE0FFF1FE80FCB
:10094000F91FE55DFD4F81819281820F931F909386
:10095000890080938800E0917E018E2FEE0F990B25
:10096000FC01EE0FFF1FE80FF91FE55DFD4F8081D1
:1009700086FF11C0E0917E018E2FEE0F990BFC01D6
:10098000EE0FFF1FE80FF91FE55DFD4F808161E06D
:100990008F730E941A01FF91EF91DF91CF91BF9168
:1009A000AF919F918F917F916F915F914F913F9107
:1009B0002F910F900FBE0F901F90189580E49CE927
:1009C00090938900809388008FEF80937E01E3CF1E
:1009D000CF92DF92EF92FF920F931F93E82FF92FA0
:1009E00005C0015011092109310961F19081962357
:1009F0009417B9F305C0015011092109310911F10A
:100A0000908196239413F7CFC12CD12CE12CF12C9B
:100A10000AC08FEFC81AD80AE80AF80A0C151D0593
:100A20002E053F0579F080818623841791F36C2D84
:100A30007D2D8E2D9F2D1F910F91FF90EF90DF90B8
:100A4000CF90089560E070E080E090E01F910F91FA
:100A5000FF90EF90DF90CF90089510929101109247
:100A6000900188EE93E0A0E0B0E080939201909333
:100A70009301A0939401B093950184E091E0909349
:100A80008F0180938E0185EC90E090939B01809381
:100A90009A0184EC90E090939D0180939C0180ECFE
:100AA00090E090939F0180939E0181EC90E0909361
:100AB000A1018093A00182EC90E09093A301809328
:100AC000A20186EC90E09093A5018093A40110927E
:100AD000A7011092A8011092A9011092AA01809179
:100AE0004F028C3098F491E0980F90934F028093CE
:100AF000500290E0FC01EE0FFF1FE80FF91FE55DCB
:100B0000FD4F88EB9BE09283818308958FEF809364
:100B100050020895789484B5826084BD84B5816064
:100B200084BD85B5826085BD85B5816085BD8091B8
:100B30006E00816080936E00109281008091810030
:100B40008260809381008091810081608093810028
:100B5000809180008160809380008091B1008460EA
:100B60008093B1008091B00081608093B00080914B
:100B70007A00846080937A0080917A00826080930A
:100B80007A0080917A00816080937A0080917A0067
:100B9000806880937A001092C10061E084E00E9436
:100BA000480161E085E00E94480161E086E00E9422
:100BB000480161E087E00E94480160E088E00E940F
:100BC000480160E082E00E94480161E084E00E9408
:100BD0001A0160E085E00E941A01E0919E01F09107
:100BE0009F0182E08083E0919A01F0919B01108245
:100BF000E0919C01F0919D018FEC80831092A60101
:100C0000E091A201F091A30186E08083E091A00130
:100C1000F091A101808180618083E091A001F09139
:100C2000A101808188608083E091A001F091A10101
:100C3000808180688083E091A001F091A101808192
:100C40008F7D8083809150028C3008F051C061E02C
:100C500089E00E94480180915002282F30E0F9017C
:100C6000EE0FFF1FE20FF31FE55DFD4F9081907CBB
:100C70009960908310925102109252022CE0622FE0
:100C80000E94AD07829FB001112430E020E0AB014B
:100C9000420F531FFA01EE0FFF1FE40FF51FE55D32
:100CA000FD4F908196FD16C02F5F3F4F2C303105D0
:100CB00071F781110FC01092800082E08093810053
:100CC0001092850010928400B19A80916F0082602A
:100CD00080936F00E09150028E2F90E0FC01EE0FA8
:100CE000FF1FE80FF91FE55DFD4F80818064808361
:100CF0008AE590E00E948C00CEE7D0E000EB10E0A7
:100D00009CE9E92E90E0F92E20E0C22E20E0D22EC0
:100D1000FE018491F801A490F701B490BB2011F179
:100D200081110E94F100EB2DF0E0EE0FFF1FE05764
:100D3000FF4FA591B4918C91A822A1F08AE590E093
:100D40000E948C0068EC70E080E090E00E949E01C0
:100D5000C114D104E9F20E943A028823C9F20E9428
:100D60000000D6CF85E191E00E944F0360E086E06D
:100D70000E941A0160E087E00E941A010E94670346
:100D8000709384016093830161E086E00E941A0100
:100D900061E087E00E941A010E946703709382015C
:100DA0006093810160E086E00E941A0161E087E0C3
:100DB0000E941A010E9467037093800160937F0173
:100DC00086E291E00E94DD0280918301909184018E
:100DD0000E945D038AE291E00E94DD028091810120
:100DE000909182010E945D038FE291E00E94DD02FA
:100DF00060917F0170918001072E000C880B990B88
:100E000097FF27C00E942E0382E191E00E94DD023D
:100E100040918301509184012091810130918201A0
:100E200080917F019091800142175307B4F44817D5
:100E3000590704F584E391E00E944F0390E080E0BD
:100E40000E948C0068EE73E080E090E00E949E01BA
:100E500079CF4AE00E94EA02D7CF2417350754F42D
:100E6000281739073CF487E491E00E944F038AE594
:100E700090E0E6CF8417950754F4821793073CF46B
:100E80008CE591E00E944F0384EB90E0D9CF80E79E
:100E900091E0EBCF052E97FB1EF400940E946107B2
:100EA00057FD07D00E947C0707FC03D04EF40C943A
:100EB000610750954095309521953F4F4F4F5F4FBB
:100EC000089590958095709561957F4F8F4F9F4FB6
:100ED00008950E949E07A59F900DB49F900DA49F1A
:100EE000800D911D11240895B7FF0C9469070E948D
:100EF0006907821B930B0895A1E21A2EAA1BBB1B44
:100F0000FD010DC0AA1FBB1FEE1FFF1FA217B307D5
:100F1000E407F50720F0A21BB30BE40BF50B661FEB
:100F2000771F881F991F1A9469F7609570958095AF
:100F300090959B01AC01BD01CF010895A29FB00126
:100F4000B39FC001A39F700D811D1124911DB29FFD
:100F5000700D811D1124911D0895991B79E004C025
:100F6000991F961708F0961B881F7A95C9F78095E8
:100F70000895EE0FFF1F0590F491E02D0994F89469
:020F8000FFCFA1
:100F8200000000007002D001FD01BD022E020C0221
:100F920020020D0A004F626A6563742064657465FD
:100FA200637465642100523A200020473A200020F1
:100FB200423A200052656420436F6C6F7220446590
:100FC20074656374656400477265656E20436F6C77
:100FD2006F7220446574656374656400426C756564
:100FE20020436F6C6F72204465746563746564009E
:0E0FF200556E6B6E6F776E20436F6C6F7200E2
:00000001FF
